{
  "_format": "hh-sol-artifact-1",
  "contractName": "MyNFT",
  "sourceName": "contracts/MyNFT.sol",
  "abi": [
    {
      "inputs": [
        {
          "internalType": "address",
          "name": "initialOwner",
          "type": "address"
        }
      ],
      "stateMutability": "nonpayable",
      "type": "constructor"
    },
    {
      "inputs": [],
      "name": "ERC721EnumerableForbiddenBatchMint",
      "type": "error"
    },
    {
      "inputs": [
        {
          "internalType": "address",
          "name": "sender",
          "type": "address"
        },
        {
          "internalType": "uint256",
          "name": "tokenId",
          "type": "uint256"
        },
        {
          "internalType": "address",
          "name": "owner",
          "type": "address"
        }
      ],
      "name": "ERC721IncorrectOwner",
      "type": "error"
    },
    {
      "inputs": [
        {
          "internalType": "address",
          "name": "operator",
          "type": "address"
        },
        {
          "internalType": "uint256",
          "name": "tokenId",
          "type": "uint256"
        }
      ],
      "name": "ERC721InsufficientApproval",
      "type": "error"
    },
    {
      "inputs": [
        {
          "internalType": "address",
          "name": "approver",
          "type": "address"
        }
      ],
      "name": "ERC721InvalidApprover",
      "type": "error"
    },
    {
      "inputs": [
        {
          "internalType": "address",
          "name": "operator",
          "type": "address"
        }
      ],
      "name": "ERC721InvalidOperator",
      "type": "error"
    },
    {
      "inputs": [
        {
          "internalType": "address",
          "name": "owner",
          "type": "address"
        }
      ],
      "name": "ERC721InvalidOwner",
      "type": "error"
    },
    {
      "inputs": [
        {
          "internalType": "address",
          "name": "receiver",
          "type": "address"
        }
      ],
      "name": "ERC721InvalidReceiver",
      "type": "error"
    },
    {
      "inputs": [
        {
          "internalType": "address",
          "name": "sender",
          "type": "address"
        }
      ],
      "name": "ERC721InvalidSender",
      "type": "error"
    },
    {
      "inputs": [
        {
          "internalType": "uint256",
          "name": "tokenId",
          "type": "uint256"
        }
      ],
      "name": "ERC721NonexistentToken",
      "type": "error"
    },
    {
      "inputs": [
        {
          "internalType": "address",
          "name": "owner",
          "type": "address"
        },
        {
          "internalType": "uint256",
          "name": "index",
          "type": "uint256"
        }
      ],
      "name": "ERC721OutOfBoundsIndex",
      "type": "error"
    },
    {
      "inputs": [
        {
          "internalType": "address",
          "name": "owner",
          "type": "address"
        }
      ],
      "name": "OwnableInvalidOwner",
      "type": "error"
    },
    {
      "inputs": [
        {
          "internalType": "address",
          "name": "account",
          "type": "address"
        }
      ],
      "name": "OwnableUnauthorizedAccount",
      "type": "error"
    },
    {
      "anonymous": false,
      "inputs": [
        {
          "indexed": true,
          "internalType": "address",
          "name": "owner",
          "type": "address"
        },
        {
          "indexed": true,
          "internalType": "address",
          "name": "approved",
          "type": "address"
        },
        {
          "indexed": true,
          "internalType": "uint256",
          "name": "tokenId",
          "type": "uint256"
        }
      ],
      "name": "Approval",
      "type": "event"
    },
    {
      "anonymous": false,
      "inputs": [
        {
          "indexed": true,
          "internalType": "address",
          "name": "owner",
          "type": "address"
        },
        {
          "indexed": true,
          "internalType": "address",
          "name": "operator",
          "type": "address"
        },
        {
          "indexed": false,
          "internalType": "bool",
          "name": "approved",
          "type": "bool"
        }
      ],
      "name": "ApprovalForAll",
      "type": "event"
    },
    {
      "anonymous": false,
      "inputs": [
        {
          "indexed": true,
          "internalType": "address",
          "name": "previousOwner",
          "type": "address"
        },
        {
          "indexed": true,
          "internalType": "address",
          "name": "newOwner",
          "type": "address"
        }
      ],
      "name": "OwnershipTransferred",
      "type": "event"
    },
    {
      "anonymous": false,
      "inputs": [
        {
          "indexed": true,
          "internalType": "address",
          "name": "from",
          "type": "address"
        },
        {
          "indexed": true,
          "internalType": "address",
          "name": "to",
          "type": "address"
        },
        {
          "indexed": true,
          "internalType": "uint256",
          "name": "tokenId",
          "type": "uint256"
        }
      ],
      "name": "Transfer",
      "type": "event"
    },
    {
      "inputs": [
        {
          "internalType": "address",
          "name": "to",
          "type": "address"
        },
        {
          "internalType": "uint256",
          "name": "tokenId",
          "type": "uint256"
        }
      ],
      "name": "approve",
      "outputs": [],
      "stateMutability": "nonpayable",
      "type": "function"
    },
    {
      "inputs": [
        {
          "internalType": "address",
          "name": "owner",
          "type": "address"
        }
      ],
      "name": "balanceOf",
      "outputs": [
        {
          "internalType": "uint256",
          "name": "",
          "type": "uint256"
        }
      ],
      "stateMutability": "view",
      "type": "function"
    },
    {
      "inputs": [
        {
          "internalType": "uint256",
          "name": "tokenId",
          "type": "uint256"
        }
      ],
      "name": "getApproved",
      "outputs": [
        {
          "internalType": "address",
          "name": "",
          "type": "address"
        }
      ],
      "stateMutability": "view",
      "type": "function"
    },
    {
      "inputs": [
        {
          "internalType": "address",
          "name": "owner",
          "type": "address"
        },
        {
          "internalType": "address",
          "name": "operator",
          "type": "address"
        }
      ],
      "name": "isApprovedForAll",
      "outputs": [
        {
          "internalType": "bool",
          "name": "",
          "type": "bool"
        }
      ],
      "stateMutability": "view",
      "type": "function"
    },
    {
      "inputs": [],
      "name": "mintNFT",
      "outputs": [],
      "stateMutability": "nonpayable",
      "type": "function"
    },
    {
      "inputs": [
        {
          "internalType": "address",
          "name": "recipient",
          "type": "address"
        }
      ],
      "name": "mintNFT",
      "outputs": [],
      "stateMutability": "nonpayable",
      "type": "function"
    },
    {
      "inputs": [],
      "name": "name",
      "outputs": [
        {
          "internalType": "string",
          "name": "",
          "type": "string"
        }
      ],
      "stateMutability": "view",
      "type": "function"
    },
    {
      "inputs": [],
      "name": "owner",
      "outputs": [
        {
          "internalType": "address",
          "name": "",
          "type": "address"
        }
      ],
      "stateMutability": "view",
      "type": "function"
    },
    {
      "inputs": [
        {
          "internalType": "uint256",
          "name": "tokenId",
          "type": "uint256"
        }
      ],
      "name": "ownerOf",
      "outputs": [
        {
          "internalType": "address",
          "name": "",
          "type": "address"
        }
      ],
      "stateMutability": "view",
      "type": "function"
    },
    {
      "inputs": [],
      "name": "renounceOwnership",
      "outputs": [],
      "stateMutability": "nonpayable",
      "type": "function"
    },
    {
      "inputs": [
        {
          "internalType": "address",
          "name": "from",
          "type": "address"
        },
        {
          "internalType": "address",
          "name": "to",
          "type": "address"
        },
        {
          "internalType": "uint256",
          "name": "tokenId",
          "type": "uint256"
        }
      ],
      "name": "safeTransferFrom",
      "outputs": [],
      "stateMutability": "nonpayable",
      "type": "function"
    },
    {
      "inputs": [
        {
          "internalType": "address",
          "name": "from",
          "type": "address"
        },
        {
          "internalType": "address",
          "name": "to",
          "type": "address"
        },
        {
          "internalType": "uint256",
          "name": "tokenId",
          "type": "uint256"
        },
        {
          "internalType": "bytes",
          "name": "data",
          "type": "bytes"
        }
      ],
      "name": "safeTransferFrom",
      "outputs": [],
      "stateMutability": "nonpayable",
      "type": "function"
    },
    {
      "inputs": [
        {
          "internalType": "address",
          "name": "operator",
          "type": "address"
        },
        {
          "internalType": "bool",
          "name": "approved",
          "type": "bool"
        }
      ],
      "name": "setApprovalForAll",
      "outputs": [],
      "stateMutability": "nonpayable",
      "type": "function"
    },
    {
      "inputs": [
        {
          "internalType": "bytes4",
          "name": "interfaceId",
          "type": "bytes4"
        }
      ],
      "name": "supportsInterface",
      "outputs": [
        {
          "internalType": "bool",
          "name": "",
          "type": "bool"
        }
      ],
      "stateMutability": "view",
      "type": "function"
    },
    {
      "inputs": [],
      "name": "symbol",
      "outputs": [
        {
          "internalType": "string",
          "name": "",
          "type": "string"
        }
      ],
      "stateMutability": "view",
      "type": "function"
    },
    {
      "inputs": [
        {
          "internalType": "uint256",
          "name": "index",
          "type": "uint256"
        }
      ],
      "name": "tokenByIndex",
      "outputs": [
        {
          "internalType": "uint256",
          "name": "",
          "type": "uint256"
        }
      ],
      "stateMutability": "view",
      "type": "function"
    },
    {
      "inputs": [
        {
          "internalType": "address",
          "name": "owner",
          "type": "address"
        },
        {
          "internalType": "uint256",
          "name": "index",
          "type": "uint256"
        }
      ],
      "name": "tokenOfOwnerByIndex",
      "outputs": [
        {
          "internalType": "uint256",
          "name": "",
          "type": "uint256"
        }
      ],
      "stateMutability": "view",
      "type": "function"
    },
    {
      "inputs": [
        {
          "internalType": "uint256",
          "name": "tokenId",
          "type": "uint256"
        }
      ],
      "name": "tokenURI",
      "outputs": [
        {
          "internalType": "string",
          "name": "",
          "type": "string"
        }
      ],
      "stateMutability": "view",
      "type": "function"
    },
    {
      "inputs": [],
      "name": "totalSupply",
      "outputs": [
        {
          "internalType": "uint256",
          "name": "",
          "type": "uint256"
        }
      ],
      "stateMutability": "view",
      "type": "function"
    },
    {
      "inputs": [
        {
          "internalType": "address",
          "name": "from",
          "type": "address"
        },
        {
          "internalType": "address",
          "name": "to",
          "type": "address"
        },
        {
          "internalType": "uint256",
          "name": "tokenId",
          "type": "uint256"
        }
      ],
      "name": "transferFrom",
      "outputs": [],
      "stateMutability": "nonpayable",
      "type": "function"
    },
    {
      "inputs": [
        {
          "internalType": "address",
          "name": "newOwner",
          "type": "address"
        }
      ],
      "name": "transferOwnership",
      "outputs": [],
      "stateMutability": "nonpayable",
      "type": "function"
    }
  ],
  "bytecode": "0x60806040523480156200001157600080fd5b50604051620018a7380380620018a7833981016040819052620000349162000127565b8060405180604001604052806005815260200164135e53919560da1b815250604051806040016040528060048152602001631353919560e21b8152508160009081620000819190620001fe565b506001620000908282620001fe565b5050506001600160a01b038116620000c257604051631e4fbdf760e01b81526000600482015260240160405180910390fd5b620000cd81620000d5565b5050620002ca565b600a80546001600160a01b038381166001600160a01b0319831681179093556040519116919082907f8be0079c531659141344cd1fd0a4f28419497f9722a3daafe3b4186f6b6457e090600090a35050565b6000602082840312156200013a57600080fd5b81516001600160a01b03811681146200015257600080fd5b9392505050565b634e487b7160e01b600052604160045260246000fd5b600181811c908216806200018457607f821691505b602082108103620001a557634e487b7160e01b600052602260045260246000fd5b50919050565b601f821115620001f957600081815260208120601f850160051c81016020861015620001d45750805b601f850160051c820191505b81811015620001f557828155600101620001e0565b5050505b505050565b81516001600160401b038111156200021a576200021a62000159565b62000232816200022b84546200016f565b84620001ab565b602080601f8311600181146200026a5760008415620002515750858301515b600019600386901b1c1916600185901b178555620001f5565b600085815260208120601f198616915b828110156200029b578886015182559484019460019091019084016200027a565b5085821015620002ba5787850151600019600388901b60f8161c191681555b5050505050600190811b01905550565b6115cd80620002da6000396000f3fe608060405234801561001057600080fd5b50600436106101375760003560e01c806354ba0f27116100b857806395d89b411161007c57806395d89b4114610271578063a22cb46514610279578063b88d4fde1461028c578063c87b56dd1461029f578063e985e9c5146102b2578063f2fde38b146102c557600080fd5b806354ba0f271461021f5780636352211e1461023257806370a0823114610245578063715018a6146102585780638da5cb5b1461026057600080fd5b806318160ddd116100ff57806318160ddd146101c157806323b872dd146101d35780632f745c59146101e657806342842e0e146101f95780634f6ccce71461020c57600080fd5b806301ffc9a71461013c57806306fdde0314610164578063081812fc14610179578063095ea7b3146101a457806314f710fe146101b9575b600080fd5b61014f61014a3660046111cf565b6102d8565b60405190151581526020015b60405180910390f35b61016c6102e9565b60405161015b919061123c565b61018c61018736600461124f565b61037b565b6040516001600160a01b03909116815260200161015b565b6101b76101b2366004611284565b6103a4565b005b6101b76103b3565b6008545b60405190815260200161015b565b6101b76101e13660046112ae565b61042d565b6101c56101f4366004611284565b6104b8565b6101b76102073660046112ae565b61051d565b6101c561021a36600461124f565b61053d565b6101b761022d3660046112ea565b610596565b61018c61024036600461124f565b610608565b6101c56102533660046112ea565b610613565b6101b761065b565b600a546001600160a01b031661018c565b61016c61066f565b6101b7610287366004611305565b61067e565b6101b761029a366004611357565b610689565b61016c6102ad36600461124f565b6106a0565b61014f6102c0366004611433565b610715565b6101b76102d33660046112ea565b610743565b60006102e38261077e565b92915050565b6060600080546102f890611466565b80601f016020809104026020016040519081016040528092919081815260200182805461032490611466565b80156103715780601f1061034657610100808354040283529160200191610371565b820191906000526020600020905b81548152906001019060200180831161035457829003601f168201915b5050505050905090565b6000610386826107a3565b506000828152600460205260409020546001600160a01b03166102e3565b6103af8282336107dc565b5050565b60056103be33610613565b106104095760405162461bcd60e51b81526020600482015260166024820152754d61782035204e46547320706572206164647265737360501b60448201526064015b60405180910390fd5b600b80546000918261041a836114b6565b91905055905061042a33826107e9565b50565b6001600160a01b03821661045757604051633250574960e11b815260006004820152602401610400565b6000610464838333610803565b9050836001600160a01b0316816001600160a01b0316146104b2576040516364283d7b60e01b81526001600160a01b0380861660048301526024820184905282166044820152606401610400565b50505050565b60006104c383610613565b82106104f45760405163295f44f760e21b81526001600160a01b038416600482015260248101839052604401610400565b506001600160a01b03919091166000908152600660209081526040808320938352929052205490565b61053883838360405180602001604052806000815250610689565b505050565b600061054860085490565b82106105715760405163295f44f760e21b81526000600482015260248101839052604401610400565b60088281548110610584576105846114cf565b90600052602060002001549050919050565b60056105a133610613565b106105e75760405162461bcd60e51b81526020600482015260166024820152754d61782035204e46547320706572206164647265737360501b6044820152606401610400565b600b8054600091826105f8836114b6565b9190505590506103af82826107e9565b60006102e3826107a3565b60006001600160a01b03821661063f576040516322718ad960e21b815260006004820152602401610400565b506001600160a01b031660009081526003602052604090205490565b610663610818565b61066d6000610845565b565b6060600180546102f890611466565b6103af338383610897565b61069484848461042d565b6104b284848484610936565b60606106ab826107a3565b5060006106c360408051602081019091526000815290565b905060008151116106e3576040518060200160405280600081525061070e565b806106ed84610a5f565b6040516020016106fe9291906114e5565b6040516020818303038152906040525b9392505050565b6001600160a01b03918216600090815260056020908152604080832093909416825291909152205460ff1690565b61074b610818565b6001600160a01b03811661077557604051631e4fbdf760e01b815260006004820152602401610400565b61042a81610845565b60006001600160e01b0319821663780e9d6360e01b14806102e357506102e382610af2565b6000818152600260205260408120546001600160a01b0316806102e357604051637e27328960e01b815260048101849052602401610400565b6105388383836001610b42565b6103af828260405180602001604052806000815250610c48565b6000610810848484610c5f565b949350505050565b600a546001600160a01b0316331461066d5760405163118cdaa760e01b8152336004820152602401610400565b600a80546001600160a01b038381166001600160a01b0319831681179093556040519116919082907f8be0079c531659141344cd1fd0a4f28419497f9722a3daafe3b4186f6b6457e090600090a35050565b6001600160a01b0382166108c957604051630b61174360e31b81526001600160a01b0383166004820152602401610400565b6001600160a01b03838116600081815260056020908152604080832094871680845294825291829020805460ff191686151590811790915591519182527f17307eab39ab6107e8899845ad3d59bd9653f200f220920489ca2b5937696c31910160405180910390a3505050565b6001600160a01b0383163b156104b257604051630a85bd0160e11b81526001600160a01b0384169063150b7a0290610978903390889087908790600401611514565b6020604051808303816000875af19250505080156109b3575060408051601f3d908101601f191682019092526109b091810190611551565b60015b610a1c573d8080156109e1576040519150601f19603f3d011682016040523d82523d6000602084013e6109e6565b606091505b508051600003610a1457604051633250574960e11b81526001600160a01b0385166004820152602401610400565b805181602001fd5b6001600160e01b03198116630a85bd0160e11b14610a5857604051633250574960e11b81526001600160a01b0385166004820152602401610400565b5050505050565b60606000610a6c83610d2c565b600101905060008167ffffffffffffffff811115610a8c57610a8c611341565b6040519080825280601f01601f191660200182016040528015610ab6576020820181803683370190505b5090508181016020015b600019016f181899199a1a9b1b9c1cb0b131b232b360811b600a86061a8153600a8504945084610ac057509392505050565b60006001600160e01b031982166380ac58cd60e01b1480610b2357506001600160e01b03198216635b5e139f60e01b145b806102e357506301ffc9a760e01b6001600160e01b03198316146102e3565b8080610b5657506001600160a01b03821615155b15610c18576000610b66846107a3565b90506001600160a01b03831615801590610b925750826001600160a01b0316816001600160a01b031614155b8015610ba55750610ba38184610715565b155b15610bce5760405163a9fbf51f60e01b81526001600160a01b0384166004820152602401610400565b8115610c165783856001600160a01b0316826001600160a01b03167f8c5be1e5ebec7d5bd14f71427d1e84f3dd0314c0f7b2291e5b200ac8c7c3b92560405160405180910390a45b505b5050600090815260046020526040902080546001600160a01b0319166001600160a01b0392909216919091179055565b610c528383610e04565b6105386000848484610936565b600080610c6d858585610e69565b90506001600160a01b038116610cca57610cc584600880546000838152600960205260408120829055600182018355919091527ff3f7a9fe364faab93b216da50a3214154f22a0a2b415b23a84c8169e8b636ee30155565b610ced565b846001600160a01b0316816001600160a01b031614610ced57610ced8185610f62565b6001600160a01b038516610d0957610d0484610ff3565b610810565b846001600160a01b0316816001600160a01b0316146108105761081085856110a2565b60008072184f03e93ff9f4daa797ed6e38ed64bf6a1f0160401b8310610d6b5772184f03e93ff9f4daa797ed6e38ed64bf6a1f0160401b830492506040015b6d04ee2d6d415b85acef81000000008310610d97576d04ee2d6d415b85acef8100000000830492506020015b662386f26fc100008310610db557662386f26fc10000830492506010015b6305f5e1008310610dcd576305f5e100830492506008015b6127108310610de157612710830492506004015b60648310610df3576064830492506002015b600a83106102e35760010192915050565b6001600160a01b038216610e2e57604051633250574960e11b815260006004820152602401610400565b6000610e3c83836000610803565b90506001600160a01b03811615610538576040516339e3563760e11b815260006004820152602401610400565b6000828152600260205260408120546001600160a01b0390811690831615610e9657610e968184866110f2565b6001600160a01b03811615610ed457610eb3600085600080610b42565b6001600160a01b038116600090815260036020526040902080546000190190555b6001600160a01b03851615610f03576001600160a01b0385166000908152600360205260409020805460010190555b60008481526002602052604080822080546001600160a01b0319166001600160a01b0389811691821790925591518793918516917fddf252ad1be2c89b69c2b068fc378daa952ba7f163c4a11628f55a4df523b3ef91a4949350505050565b6000610f6d83610613565b600083815260076020526040902054909150808214610fc0576001600160a01b03841660009081526006602090815260408083208584528252808320548484528184208190558352600790915290208190555b5060009182526007602090815260408084208490556001600160a01b039094168352600681528383209183525290812055565b6008546000906110059060019061156e565b6000838152600960205260408120546008805493945090928490811061102d5761102d6114cf565b90600052602060002001549050806008838154811061104e5761104e6114cf565b600091825260208083209091019290925582815260099091526040808220849055858252812055600880548061108657611086611581565b6001900381819060005260206000200160009055905550505050565b600060016110af84610613565b6110b9919061156e565b6001600160a01b039093166000908152600660209081526040808320868452825280832085905593825260079052919091209190915550565b6110fd838383611156565b610538576001600160a01b03831661112b57604051637e27328960e01b815260048101829052602401610400565b60405163177e802f60e01b81526001600160a01b038316600482015260248101829052604401610400565b60006001600160a01b038316158015906108105750826001600160a01b0316846001600160a01b0316148061119057506111908484610715565b806108105750506000908152600460205260409020546001600160a01b03908116911614919050565b6001600160e01b03198116811461042a57600080fd5b6000602082840312156111e157600080fd5b813561070e816111b9565b60005b838110156112075781810151838201526020016111ef565b50506000910152565b600081518084526112288160208601602086016111ec565b601f01601f19169290920160200192915050565b60208152600061070e6020830184611210565b60006020828403121561126157600080fd5b5035919050565b80356001600160a01b038116811461127f57600080fd5b919050565b6000806040838503121561129757600080fd5b6112a083611268565b946020939093013593505050565b6000806000606084860312156112c357600080fd5b6112cc84611268565b92506112da60208501611268565b9150604084013590509250925092565b6000602082840312156112fc57600080fd5b61070e82611268565b6000806040838503121561131857600080fd5b61132183611268565b91506020830135801515811461133657600080fd5b809150509250929050565b634e487b7160e01b600052604160045260246000fd5b6000806000806080858703121561136d57600080fd5b61137685611268565b935061138460208601611268565b925060408501359150606085013567ffffffffffffffff808211156113a857600080fd5b818701915087601f8301126113bc57600080fd5b8135818111156113ce576113ce611341565b604051601f8201601f19908116603f011681019083821181831017156113f6576113f6611341565b816040528281528a602084870101111561140f57600080fd5b82602086016020830137600060208483010152809550505050505092959194509250565b6000806040838503121561144657600080fd5b61144f83611268565b915061145d60208401611268565b90509250929050565b600181811c9082168061147a57607f821691505b60208210810361149a57634e487b7160e01b600052602260045260246000fd5b50919050565b634e487b7160e01b600052601160045260246000fd5b6000600182016114c8576114c86114a0565b5060010190565b634e487b7160e01b600052603260045260246000fd5b600083516114f78184602088016111ec565b83519083019061150b8183602088016111ec565b01949350505050565b6001600160a01b038581168252841660208201526040810183905260806060820181905260009061154790830184611210565b9695505050505050565b60006020828403121561156357600080fd5b815161070e816111b9565b818103818111156102e3576102e36114a0565b634e487b7160e01b600052603160045260246000fdfea2646970667358221220d549421fc580d43db11cdfcc012e94d4c4ce41502ce19917df9b789f867c591064736f6c63430008140033",
  "linkReferences": {},
  "deployedLinkReferences": {}
}